{
  "contractName": "BarbossaBrethren",
  "abi": [
    {
      "inputs": [
        {
          "internalType": "uint256",
          "name": "biddingPeriod",
          "type": "uint256"
        },
        {
          "internalType": "uint256",
          "name": "revealingPeriod",
          "type": "uint256"
        }
      ],
      "payable": false,
      "stateMutability": "nonpayable",
      "type": "constructor"
    },
    {
      "constant": true,
      "inputs": [],
      "name": "endOfBidding",
      "outputs": [
        {
          "internalType": "uint256",
          "name": "",
          "type": "uint256"
        }
      ],
      "payable": false,
      "stateMutability": "view",
      "type": "function"
    },
    {
      "constant": true,
      "inputs": [],
      "name": "endOfRevealing",
      "outputs": [
        {
          "internalType": "uint256",
          "name": "",
          "type": "uint256"
        }
      ],
      "payable": false,
      "stateMutability": "view",
      "type": "function"
    },
    {
      "constant": true,
      "inputs": [
        {
          "internalType": "address",
          "name": "",
          "type": "address"
        }
      ],
      "name": "hashedBidOf",
      "outputs": [
        {
          "internalType": "bytes32",
          "name": "",
          "type": "bytes32"
        }
      ],
      "payable": false,
      "stateMutability": "view",
      "type": "function"
    },
    {
      "constant": true,
      "inputs": [],
      "name": "highBid",
      "outputs": [
        {
          "internalType": "uint256",
          "name": "",
          "type": "uint256"
        }
      ],
      "payable": false,
      "stateMutability": "view",
      "type": "function"
    },
    {
      "constant": true,
      "inputs": [],
      "name": "highBidder",
      "outputs": [
        {
          "internalType": "address",
          "name": "",
          "type": "address"
        }
      ],
      "payable": false,
      "stateMutability": "view",
      "type": "function"
    },
    {
      "constant": true,
      "inputs": [],
      "name": "sendBid",
      "outputs": [
        {
          "internalType": "uint256",
          "name": "",
          "type": "uint256"
        }
      ],
      "payable": false,
      "stateMutability": "view",
      "type": "function"
    },
    {
      "constant": false,
      "inputs": [
        {
          "internalType": "uint256",
          "name": "amount",
          "type": "uint256"
        },
        {
          "internalType": "uint256",
          "name": "nonce",
          "type": "uint256"
        }
      ],
      "name": "bid",
      "outputs": [],
      "payable": false,
      "stateMutability": "nonpayable",
      "type": "function"
    },
    {
      "constant": true,
      "inputs": [],
      "name": "time",
      "outputs": [
        {
          "internalType": "string",
          "name": "",
          "type": "string"
        }
      ],
      "payable": false,
      "stateMutability": "view",
      "type": "function"
    },
    {
      "constant": false,
      "inputs": [
        {
          "internalType": "uint256",
          "name": "amount",
          "type": "uint256"
        },
        {
          "internalType": "uint256",
          "name": "nonce",
          "type": "uint256"
        }
      ],
      "name": "reveal",
      "outputs": [],
      "payable": false,
      "stateMutability": "nonpayable",
      "type": "function"
    },
    {
      "constant": false,
      "inputs": [],
      "name": "claim",
      "outputs": [],
      "payable": false,
      "stateMutability": "nonpayable",
      "type": "function"
    }
  ],
  "bytecode": "0x608060405233600560006101000a81548173ffffffffffffffffffffffffffffffffffffffff021916908373ffffffffffffffffffffffffffffffffffffffff16021790555034801561005157600080fd5b506040516106a33803806106a38339818101604052604081101561007457600080fd5b8101908080519060200190929190805190602001909291905050508142016001819055508060015401600281905550336000806101000a81548173ffffffffffffffffffffffffffffffffffffffff021916908373ffffffffffffffffffffffffffffffffffffffff16021790555050506105af806100f46000396000f3fe608060405234801561001057600080fd5b506004361061009e5760003560e01c80634e71d92d116100665780634e71d92d14610204578063598647f81461020e5780639348cef714610246578063953ef4ed1461027e578063b6cc986f1461029c5761009e565b80630e28fca1146100a3578063142d64ce146100c157806316ada547146101195780632916cb021461019c5780633ce123dc146101ba575b600080fd5b6100ab6102ba565b6040518082815260200191505060405180910390f35b610103600480360360208110156100d757600080fd5b81019080803573ffffffffffffffffffffffffffffffffffffffff1690602001909291905050506102c0565b6040518082815260200191505060405180910390f35b6101216102d8565b6040518080602001828103825283818151815260200191508051906020019080838360005b83811015610161578082015181840152602081019050610146565b50505050905090810190601f16801561018e5780820380516001836020036101000a031916815260200191505b509250505060405180910390f35b6101a46103b2565b6040518082815260200191505060405180910390f35b6101c26103b8565b604051808273ffffffffffffffffffffffffffffffffffffffff1673ffffffffffffffffffffffffffffffffffffffff16815260200191505060405180910390f35b61020c6103de565b005b6102446004803603604081101561022457600080fd5b8101908080359060200190929190803590602001909291905050506103f8565b005b61027c6004803603604081101561025c57600080fd5b810190808035906020019092919080359060200190929190505050610482565b005b61028661056e565b6040518082815260200191505060405180910390f35b6102a4610574565b6040518082815260200191505060405180910390f35b60025481565b60046020528060005260406000206000915090505481565b6060600154421015610321576040518060400160405280600781526020017f42696464696e670000000000000000000000000000000000000000000000000081525090506103af565b6001544210158015610334575060025442105b15610376576040518060400160405280600981526020017f52657665616c696e67000000000000000000000000000000000000000000000081525090506103af565b6040518060400160405280600581526020017f436c61696d00000000000000000000000000000000000000000000000000000081525090505b90565b60015481565b600560009054906101000a900473ffffffffffffffffffffffffffffffffffffffff1681565b6002544210156103ed57600080fd5b600654600381905550565b600154421061040657600080fd5b60008282604051602001808381526020018281526020019250505060405160208183030381529060405280519060200120905080600460003373ffffffffffffffffffffffffffffffffffffffff1673ffffffffffffffffffffffffffffffffffffffff16815260200190815260200160002081905550505050565b6001544210158015610495575060025442105b61049e57600080fd5b600460003373ffffffffffffffffffffffffffffffffffffffff1673ffffffffffffffffffffffffffffffffffffffff1681526020019081526020016000205482826040516020018083815260200182815260200192505050604051602081830303815290604052805190602001201461051757600080fd5b60065482111561056a578160068190555033600560006101000a81548173ffffffffffffffffffffffffffffffffffffffff021916908373ffffffffffffffffffffffffffffffffffffffff1602179055505b5050565b60035481565b6006548156fea265627a7a72315820dafefaa1dcf01335a4f5908e3d99c0e679e2ad67a0cfde66ec5f7268bfea877464736f6c63430005100032",
  "source": "pragma solidity ^0.5.16;\n\ncontract BarbossaBrethren {\n    address seller;\n\n    uint public endOfBidding;\n    uint public endOfRevealing;\n    uint public sendBid;\n\n    constructor(\n        uint biddingPeriod,\n        uint revealingPeriod\n    )\n        public\n    {\n        endOfBidding = now + biddingPeriod;\n        endOfRevealing = endOfBidding + revealingPeriod;\n        seller = msg.sender;\n    }\n\n    mapping(address => bytes32) public hashedBidOf;\n\n    function bid(uint amount, uint nonce) public{\n        require(now < endOfBidding);\n        bytes32 h = keccak256(abi.encodePacked(amount,nonce));\n        hashedBidOf[msg.sender] = h;\n    }\n\n    function time() view public returns(string memory) {\n        if(now < endOfBidding)\n            return \"Bidding\";\n        else if(now >= endOfBidding && now < endOfRevealing)\n            return \"Revealing\";\n        else\n            return \"Claim\";\n    }\n\n    address public highBidder = msg.sender;\n    uint public highBid;\n\n    function reveal(uint amount, uint nonce) public {\n        require(now >= endOfBidding && now < endOfRevealing);\n        require(keccak256(abi.encodePacked(amount, nonce)) == hashedBidOf[msg.sender]);\n\n        if (amount > highBid) {\n            highBid = amount;\n            highBidder = msg.sender;\n        }\n    }\n\n    function claim() public {\n        require(now >= endOfRevealing);\n        sendBid = highBid;\n    }\n}",
  "sourcePath": "/home/mayank/Study/BC/vickrey-auction-blockchain/contracts/BarbossaBrethren.sol",
  "compiler": {
    "name": "solc",
    "version": "0.5.16+commit.9c3226ce.Emscripten.clang"
  },
  "schemaVersion": "3.2.4",
  "updatedAt": "2020-09-08T14:26:32.429Z",
  "networkType": "ethereum",
  "devdoc": {
    "methods": {}
  },
  "userdoc": {
    "methods": {}
  }
}