{
  "contractName": "BarbossaBrethren",
  "abi": [
    {
      "inputs": [
        {
          "internalType": "uint256",
          "name": "biddingPeriod",
          "type": "uint256"
        },
        {
          "internalType": "uint256",
          "name": "revealingPeriod",
          "type": "uint256"
        }
      ],
      "payable": false,
      "stateMutability": "nonpayable",
      "type": "constructor"
    },
    {
      "constant": true,
      "inputs": [],
      "name": "endOfBidding",
      "outputs": [
        {
          "internalType": "uint256",
          "name": "",
          "type": "uint256"
        }
      ],
      "payable": false,
      "stateMutability": "view",
      "type": "function"
    },
    {
      "constant": true,
      "inputs": [],
      "name": "endOfRevealing",
      "outputs": [
        {
          "internalType": "uint256",
          "name": "",
          "type": "uint256"
        }
      ],
      "payable": false,
      "stateMutability": "view",
      "type": "function"
    },
    {
      "constant": true,
      "inputs": [
        {
          "internalType": "address",
          "name": "",
          "type": "address"
        }
      ],
      "name": "hashedBidOf",
      "outputs": [
        {
          "internalType": "uint256",
          "name": "",
          "type": "uint256"
        }
      ],
      "payable": false,
      "stateMutability": "view",
      "type": "function"
    },
    {
      "constant": true,
      "inputs": [],
      "name": "highBid",
      "outputs": [
        {
          "internalType": "uint256",
          "name": "",
          "type": "uint256"
        }
      ],
      "payable": false,
      "stateMutability": "view",
      "type": "function"
    },
    {
      "constant": true,
      "inputs": [],
      "name": "highBidder",
      "outputs": [
        {
          "internalType": "address",
          "name": "",
          "type": "address"
        }
      ],
      "payable": false,
      "stateMutability": "view",
      "type": "function"
    },
    {
      "constant": true,
      "inputs": [],
      "name": "initPrice",
      "outputs": [
        {
          "internalType": "uint256",
          "name": "",
          "type": "uint256"
        }
      ],
      "payable": false,
      "stateMutability": "view",
      "type": "function"
    },
    {
      "constant": true,
      "inputs": [],
      "name": "sendBid",
      "outputs": [
        {
          "internalType": "uint256",
          "name": "",
          "type": "uint256"
        }
      ],
      "payable": false,
      "stateMutability": "view",
      "type": "function"
    },
    {
      "constant": true,
      "inputs": [
        {
          "internalType": "uint256",
          "name": "amount",
          "type": "uint256"
        },
        {
          "internalType": "uint256",
          "name": "nonce",
          "type": "uint256"
        }
      ],
      "name": "encode",
      "outputs": [
        {
          "internalType": "uint256",
          "name": "",
          "type": "uint256"
        }
      ],
      "payable": false,
      "stateMutability": "pure",
      "type": "function"
    },
    {
      "constant": false,
      "inputs": [
        {
          "internalType": "uint256",
          "name": "hash",
          "type": "uint256"
        }
      ],
      "name": "bid",
      "outputs": [],
      "payable": false,
      "stateMutability": "nonpayable",
      "type": "function"
    },
    {
      "constant": false,
      "inputs": [
        {
          "internalType": "uint256",
          "name": "amount",
          "type": "uint256"
        },
        {
          "internalType": "uint256",
          "name": "nonce",
          "type": "uint256"
        }
      ],
      "name": "reveal",
      "outputs": [],
      "payable": false,
      "stateMutability": "nonpayable",
      "type": "function"
    },
    {
      "constant": false,
      "inputs": [],
      "name": "claim",
      "outputs": [],
      "payable": false,
      "stateMutability": "nonpayable",
      "type": "function"
    }
  ],
  "bytecode": "0x608060405233600660006101000a81548173ffffffffffffffffffffffffffffffffffffffff021916908373ffffffffffffffffffffffffffffffffffffffff16021790555034801561005157600080fd5b506040516105b33803806105b38339818101604052604081101561007457600080fd5b8101908080519060200190929190805190602001909291905050508142016002819055508060025401600381905550336000806101000a81548173ffffffffffffffffffffffffffffffffffffffff021916908373ffffffffffffffffffffffffffffffffffffffff16021790555050506104bf806100f46000396000f3fe608060405234801561001057600080fd5b50600436106100a95760003560e01c80634e71d92d116100715780634e71d92d146101ba5780639348cef7146101c4578063953ef4ed146101fc578063b6add0f41461021a578063b6cc986f14610238578063dc0aa2af14610256576100a9565b80630e28fca1146100ae578063142d64ce146100cc5780632916cb02146101245780633ce123dc14610142578063454a2ab31461018c575b600080fd5b6100b66102a2565b6040518082815260200191505060405180910390f35b61010e600480360360208110156100e257600080fd5b81019080803573ffffffffffffffffffffffffffffffffffffffff1690602001909291905050506102a8565b6040518082815260200191505060405180910390f35b61012c6102c0565b6040518082815260200191505060405180910390f35b61014a6102c6565b604051808273ffffffffffffffffffffffffffffffffffffffff1673ffffffffffffffffffffffffffffffffffffffff16815260200191505060405180910390f35b6101b8600480360360208110156101a257600080fd5b81019080803590602001909291905050506102ec565b005b6101c2610333565b005b6101fa600480360360408110156101da57600080fd5b81019080803590602001909291908035906020019092919050505061034d565b005b61020461043c565b6040518082815260200191505060405180910390f35b610222610442565b6040518082815260200191505060405180910390f35b610240610448565b6040518082815260200191505060405180910390f35b61028c6004803603604081101561026c57600080fd5b81019080803590602001909291908035906020019092919050505061044e565b6040518082815260200191505060405180910390f35b60035481565b60056020528060005260406000206000915090505481565b60025481565b600660009054906101000a900473ffffffffffffffffffffffffffffffffffffffff1681565b80600560003373ffffffffffffffffffffffffffffffffffffffff1673ffffffffffffffffffffffffffffffffffffffff1681526020019081526020016000208190555050565b60035442101561034257600080fd5b600754600481905550565b6002544210158015610360575060035442105b61036957600080fd5b600560003373ffffffffffffffffffffffffffffffffffffffff1673ffffffffffffffffffffffffffffffffffffffff16815260200190815260200160002054828260405160200180838152602001828152602001925050506040516020818303038152906040528051906020012060001c146103e557600080fd5b600754821115610438578160078190555033600660006101000a81548173ffffffffffffffffffffffffffffffffffffffff021916908373ffffffffffffffffffffffffffffffffffffffff1602179055505b5050565b60045481565b60015481565b60075481565b6000828260405160200180838152602001828152602001925050506040516020818303038152906040528051906020012060001c90509291505056fea265627a7a723158204754b8e93cfcd276c9e2c2afeedbc878c1228b1e4c76373c89ba0cb58a058ddf64736f6c63430005100032",
  "source": "pragma solidity ^0.5.16;\n\ncontract BarbossaBrethren {\n    address seller;\n\n    uint public initPrice;\n    uint public endOfBidding;\n    uint public endOfRevealing;\n    uint public sendBid;\n\n    constructor(\n        uint biddingPeriod,\n        uint revealingPeriod\n    )\n        public\n    {\n        endOfBidding = now + biddingPeriod;\n        endOfRevealing = endOfBidding + revealingPeriod;\n        seller = msg.sender;\n    }\n\n    mapping(address => uint) public hashedBidOf;\n\n    function encode(uint amount, uint nonce) pure public returns(uint){\n        return uint(keccak256(abi.encodePacked(amount,nonce)));\n    }\n\n    function bid(uint hash) public{\n        // require(now < endOfBidding);\n        hashedBidOf[msg.sender] = hash;\n    }\n\n    address public highBidder = msg.sender;\n    uint public highBid;\n\n    function reveal(uint amount, uint nonce) public {\n        require(now >= endOfBidding && now < endOfRevealing);\n        require(uint(keccak256(abi.encodePacked(amount, nonce))) == hashedBidOf[msg.sender]);\n\n        if (amount > highBid) {\n            highBid = amount;\n            highBidder = msg.sender;\n        }\n    }\n\n    function claim() public {\n        require(now >= endOfRevealing);\n        sendBid = highBid;\n    }\n}",
  "sourcePath": "/home/mayank/Study/BC/vickrey-auction-blockchain/contracts/BarbossaBrethren.sol",
  "compiler": {
    "name": "solc",
    "version": "0.5.16+commit.9c3226ce.Emscripten.clang"
  },
  "schemaVersion": "3.2.4",
  "updatedAt": "2020-09-08T09:08:03.756Z",
  "networkType": "ethereum",
  "devdoc": {
    "methods": {}
  },
  "userdoc": {
    "methods": {}
  }
}