{
  "contractName": "BarbossaBrethren",
  "abi": [
    {
      "inputs": [
        {
          "internalType": "uint256",
          "name": "biddingPeriod",
          "type": "uint256"
        },
        {
          "internalType": "uint256",
          "name": "revealingPeriod",
          "type": "uint256"
        }
      ],
      "payable": false,
      "stateMutability": "nonpayable",
      "type": "constructor"
    },
    {
      "constant": true,
      "inputs": [],
      "name": "endOfBidding",
      "outputs": [
        {
          "internalType": "uint256",
          "name": "",
          "type": "uint256"
        }
      ],
      "payable": false,
      "stateMutability": "view",
      "type": "function"
    },
    {
      "constant": true,
      "inputs": [],
      "name": "endOfRevealing",
      "outputs": [
        {
          "internalType": "uint256",
          "name": "",
          "type": "uint256"
        }
      ],
      "payable": false,
      "stateMutability": "view",
      "type": "function"
    },
    {
      "constant": true,
      "inputs": [
        {
          "internalType": "address",
          "name": "",
          "type": "address"
        }
      ],
      "name": "hashedBidOf",
      "outputs": [
        {
          "internalType": "bytes32",
          "name": "",
          "type": "bytes32"
        }
      ],
      "payable": false,
      "stateMutability": "view",
      "type": "function"
    },
    {
      "constant": true,
      "inputs": [],
      "name": "highBid",
      "outputs": [
        {
          "internalType": "uint256",
          "name": "",
          "type": "uint256"
        }
      ],
      "payable": false,
      "stateMutability": "view",
      "type": "function"
    },
    {
      "constant": true,
      "inputs": [],
      "name": "highBidder",
      "outputs": [
        {
          "internalType": "address",
          "name": "",
          "type": "address"
        }
      ],
      "payable": false,
      "stateMutability": "view",
      "type": "function"
    },
    {
      "constant": true,
      "inputs": [],
      "name": "sendBid",
      "outputs": [
        {
          "internalType": "uint256",
          "name": "",
          "type": "uint256"
        }
      ],
      "payable": false,
      "stateMutability": "view",
      "type": "function"
    },
    {
      "constant": false,
      "inputs": [
        {
          "internalType": "uint256",
          "name": "amount",
          "type": "uint256"
        },
        {
          "internalType": "uint256",
          "name": "nonce",
          "type": "uint256"
        }
      ],
      "name": "bid",
      "outputs": [],
      "payable": false,
      "stateMutability": "nonpayable",
      "type": "function"
    },
    {
      "constant": false,
      "inputs": [
        {
          "internalType": "uint256",
          "name": "amount",
          "type": "uint256"
        },
        {
          "internalType": "uint256",
          "name": "nonce",
          "type": "uint256"
        }
      ],
      "name": "reveal",
      "outputs": [],
      "payable": false,
      "stateMutability": "nonpayable",
      "type": "function"
    },
    {
      "constant": false,
      "inputs": [],
      "name": "claim",
      "outputs": [],
      "payable": false,
      "stateMutability": "nonpayable",
      "type": "function"
    }
  ],
  "bytecode": "0x608060405233600560006101000a81548173ffffffffffffffffffffffffffffffffffffffff021916908373ffffffffffffffffffffffffffffffffffffffff16021790555034801561005157600080fd5b5060405161053b38038061053b8339818101604052604081101561007457600080fd5b8101908080519060200190929190805190602001909291905050508142016001819055508060015401600281905550336000806101000a81548173ffffffffffffffffffffffffffffffffffffffff021916908373ffffffffffffffffffffffffffffffffffffffff1602179055505050610447806100f46000396000f3fe608060405234801561001057600080fd5b50600436106100935760003560e01c80634e71d92d116100665780634e71d92d14610176578063598647f8146101805780639348cef7146101b8578063953ef4ed146101f0578063b6cc986f1461020e57610093565b80630e28fca114610098578063142d64ce146100b65780632916cb021461010e5780633ce123dc1461012c575b600080fd5b6100a061022c565b6040518082815260200191505060405180910390f35b6100f8600480360360208110156100cc57600080fd5b81019080803573ffffffffffffffffffffffffffffffffffffffff169060200190929190505050610232565b6040518082815260200191505060405180910390f35b61011661024a565b6040518082815260200191505060405180910390f35b610134610250565b604051808273ffffffffffffffffffffffffffffffffffffffff1673ffffffffffffffffffffffffffffffffffffffff16815260200191505060405180910390f35b61017e610276565b005b6101b66004803603604081101561019657600080fd5b810190808035906020019092919080359060200190929190505050610290565b005b6101ee600480360360408110156101ce57600080fd5b81019080803590602001909291908035906020019092919050505061031a565b005b6101f8610406565b6040518082815260200191505060405180910390f35b61021661040c565b6040518082815260200191505060405180910390f35b60025481565b60046020528060005260406000206000915090505481565b60015481565b600560009054906101000a900473ffffffffffffffffffffffffffffffffffffffff1681565b60025442101561028557600080fd5b600654600381905550565b600154421061029e57600080fd5b60008282604051602001808381526020018281526020019250505060405160208183030381529060405280519060200120905080600460003373ffffffffffffffffffffffffffffffffffffffff1673ffffffffffffffffffffffffffffffffffffffff16815260200190815260200160002081905550505050565b600154421015801561032d575060025442105b61033657600080fd5b600460003373ffffffffffffffffffffffffffffffffffffffff1673ffffffffffffffffffffffffffffffffffffffff168152602001908152602001600020548282604051602001808381526020018281526020019250505060405160208183030381529060405280519060200120146103af57600080fd5b600654821115610402578160068190555033600560006101000a81548173ffffffffffffffffffffffffffffffffffffffff021916908373ffffffffffffffffffffffffffffffffffffffff1602179055505b5050565b60035481565b6006548156fea265627a7a723158203be7eb629dd3699f9d6583ff67dfabf194844d9af52b6f1f17cb6b3b95ce4d1864736f6c63430005100032",
  "source": "pragma solidity ^0.5.16;\n\ncontract BarbossaBrethren {\n    address seller;\n\n    uint public endOfBidding;\n    uint public endOfRevealing;\n    uint public sendBid;\n\n    constructor(\n        uint biddingPeriod,\n        uint revealingPeriod\n    )\n        public\n    {\n        endOfBidding = now + biddingPeriod;\n        endOfRevealing = endOfBidding + revealingPeriod;\n        seller = msg.sender;\n    }\n\n    mapping(address => bytes32) public hashedBidOf;\n\n    function bid(uint amount, uint nonce) public{\n        require(now < endOfBidding);\n        bytes32 h = keccak256(abi.encodePacked(amount,nonce));\n        hashedBidOf[msg.sender] = h;\n    }\n\n    address public highBidder = msg.sender;\n    uint public highBid;\n\n    function reveal(uint amount, uint nonce) public {\n        require(now >= endOfBidding && now < endOfRevealing);\n        require(keccak256(abi.encodePacked(amount, nonce)) == hashedBidOf[msg.sender]);\n\n        if (amount > highBid) {\n            highBid = amount;\n            highBidder = msg.sender;\n        }\n    }\n\n    function claim() public {\n        require(now >= endOfRevealing);\n        sendBid = highBid;\n    }\n}",
  "sourcePath": "/home/mayank/Study/BC/vickrey-auction-blockchain/contracts/BarbossaBrethren.sol",
  "compiler": {
    "name": "solc",
    "version": "0.5.16+commit.9c3226ce.Emscripten.clang"
  },
  "schemaVersion": "3.2.4",
  "updatedAt": "2020-09-08T14:13:46.434Z",
  "networkType": "ethereum",
  "devdoc": {
    "methods": {}
  },
  "userdoc": {
    "methods": {}
  }
}