{
  "contractName": "BaseAuction",
  "abi": [
    {
      "constant": false,
      "inputs": [
        {
          "internalType": "bytes32",
          "name": "h",
          "type": "bytes32"
        }
      ],
      "name": "bid",
      "outputs": [],
      "payable": false,
      "stateMutability": "nonpayable",
      "type": "function"
    },
    {
      "constant": false,
      "inputs": [],
      "name": "timeLeftBidding",
      "outputs": [
        {
          "internalType": "uint256",
          "name": "",
          "type": "uint256"
        }
      ],
      "payable": false,
      "stateMutability": "nonpayable",
      "type": "function"
    },
    {
      "constant": false,
      "inputs": [],
      "name": "timeLeftRevealing",
      "outputs": [
        {
          "internalType": "uint256",
          "name": "",
          "type": "uint256"
        }
      ],
      "payable": false,
      "stateMutability": "nonpayable",
      "type": "function"
    },
    {
      "constant": false,
      "inputs": [
        {
          "internalType": "uint256",
          "name": "amount",
          "type": "uint256"
        },
        {
          "internalType": "uint256",
          "name": "nonce",
          "type": "uint256"
        }
      ],
      "name": "reveal",
      "outputs": [],
      "payable": false,
      "stateMutability": "nonpayable",
      "type": "function"
    }
  ],
  "bytecode": "0x608060405234801561001057600080fd5b5061068b806100206000396000f3fe608060405234801561001057600080fd5b506004361061004c5760003560e01c80634aa578b5146100515780639348cef71461006f578063957bb1e0146100a7578063f64edbd1146100d5575b600080fd5b6100596100f3565b6040518082815260200191505060405180910390f35b6100a56004803603604081101561008557600080fd5b810190808035906020019092919080359060200190929190505050610191565b005b6100d3600480360360208110156100bd57600080fd5b8101908080359060200190929190505050610461565b005b6100dd61051f565b6040518082815260200191505060405180910390f35b6000600154421061016c576040517f08c379a00000000000000000000000000000000000000000000000000000000081526004018080602001828103825260168152602001807f42696464696e672054696d652068617320456e6465640000000000000000000081525060200191505060405180910390fd5b6001600560006101000a81548160ff0219169083151502179055504260015403905090565b600154421015610209576040517f08c379a000000000000000000000000000000000000000000000000000000000815260040180806020018281038252601c8152602001807f52657665616c696e672074696d6520686173206e6f7420626567756e0000000081525060200191505060405180910390fd5b6002544210610280576040517f08c379a00000000000000000000000000000000000000000000000000000000081526004018080602001828103825260188152602001807f52657665616c696e672074696d652068617320456e646564000000000000000081525060200191505060405180910390fd5b600760003373ffffffffffffffffffffffffffffffffffffffff1673ffffffffffffffffffffffffffffffffffffffff16815260200190815260200160002054828260405160200180838152602001828152602001925050506040516020818303038152906040528051906020012014610345576040517f08c379a00000000000000000000000000000000000000000000000000000000081526004018080602001828103825260218152602001806106366021913960400191505060405180910390fd5b600660003373ffffffffffffffffffffffffffffffffffffffff1673ffffffffffffffffffffffffffffffffffffffff16815260200190815260200160002060009054906101000a900460ff1615610405576040517f08c379a00000000000000000000000000000000000000000000000000000000081526004018080602001828103825260148152602001807f42696420416c72656164792052657665616c656400000000000000000000000081525060200191505060405180910390fd5b6001600660003373ffffffffffffffffffffffffffffffffffffffff1673ffffffffffffffffffffffffffffffffffffffff16815260200190815260200160002060006101000a81548160ff0219169083151502179055505050565b60015442106104d8576040517f08c379a00000000000000000000000000000000000000000000000000000000081526004018080602001828103825260168152602001807f42696464696e672054696d652068617320456e6465640000000000000000000081525060200191505060405180910390fd5b80600760003373ffffffffffffffffffffffffffffffffffffffff1673ffffffffffffffffffffffffffffffffffffffff1681526020019081526020016000208190555050565b6000600154421015610599576040517f08c379a000000000000000000000000000000000000000000000000000000000815260040180806020018281038252601c8152602001807f52657665616c696e672074696d6520686173206e6f7420626567756e0000000081525060200191505060405180910390fd5b6002544210610610576040517f08c379a00000000000000000000000000000000000000000000000000000000081526004018080602001828103825260188152602001807f52657665616c696e672074696d652068617320456e646564000000000000000081525060200191505060405180910390fd5b6001600560006101000a81548160ff021916908315150217905550426002540390509056fe52657665616c656420426964206f72204e6f6e636520646f6e2774206d61746368a265627a7a7231582015a191685a420bef4cd905d7e5fac742ae922271ebf99f45647e76c9664bfc8264736f6c63430005100032",
  "source": "// SPDX-License-Identifier: MIT\npragma solidity >=0.4.22 <0.8.0;\n\n/*\n* A Base Auction contract from which both the Vickrey Auction and Bidding Ring contracts\n* would be inherited. We have made a separate contract because most of the part of the code\n* was same including most of the bid and reveal functions and the modifiers.\n*/\n\ncontract BaseAuction{\n\n    // State Variables\n    address payable internal owner;\n\n    uint internal endOfBidding;\n    uint internal endOfRevealing;\n\n    address internal highBidder;\n    uint internal highBid;\n    bool internal sendTime;\n\n    // A revealed mapping which disallows seller to bid\n    mapping(address => bool) internal revealed;\n\n    modifier onlyOwner {\n        require(msg.sender == owner, \"Only owner can call this function.\");\n        _;\n    }\n    modifier withinBidTime {\n      require(block.timestamp < endOfBidding, \"Bidding Time has Ended\");\n      _;\n    }\n    modifier withinRevealTime {\n      require(block.timestamp >= endOfBidding,\"Revealing time has not begun\");\n      require(block.timestamp < endOfRevealing,\"Revealing time has Ended\");\n      _;\n    }\n\n    // The bids are stored in a hashed format so that it is not visible even to the seller\n    mapping(address => bytes32) internal hashedBidOf;\n\n    // A bidding function where one needs to send the hashed value of their bidding amount\n    // This could be done using web3.utils.keccak256(uint amount, uint nonce)\n    // Here nonce is a random value that needs to remembered by the bidder till the reveal time\n    // This is done so as to make the hashes of two different bids completely indistinguishable\n    function bid(bytes32 h) public withinBidTime {\n      hashedBidOf[msg.sender] = h;\n    }\n    \n    // Helper functions to indicate the current time and the time left for different periods\n    function timeLeftBidding() public withinBidTime returns(uint) {\n      sendTime = true;\n      return endOfBidding - block.timestamp;\n    }\n\n    function timeLeftRevealing() public withinRevealTime returns(uint) {\n      sendTime = true;\n      return endOfRevealing - block.timestamp;\n    }\n\n    // During the revealing time this function needs to be called to levy the claim\n    function reveal(uint amount, uint nonce) public withinRevealTime {\n      require(keccak256(abi.encodePacked(amount, nonce)) == hashedBidOf[msg.sender], \"Revealed Bid or Nonce don't match\");\n      require(!revealed[msg.sender], \"Bid Already Revealed\");\n      revealed[msg.sender] = true;\n    }\n}",
  "sourcePath": "/home/mayank/Study/BC/vickrey-auction-blockchain/contracts/BaseAuction.sol",
  "compiler": {
    "name": "solc",
    "version": "0.5.16+commit.9c3226ce.Emscripten.clang"
  },
  "schemaVersion": "3.2.4",
  "updatedAt": "2020-09-09T16:06:31.425Z",
  "devdoc": {
    "methods": {}
  },
  "userdoc": {
    "methods": {}
  }
}