{
  "contractName": "BiddingRing",
  "abi": [
    {
      "inputs": [],
      "payable": false,
      "stateMutability": "nonpayable",
      "type": "constructor"
    },
    {
      "constant": false,
      "inputs": [
        {
          "internalType": "bytes32",
          "name": "h",
          "type": "bytes32"
        }
      ],
      "name": "bid",
      "outputs": [],
      "payable": false,
      "stateMutability": "nonpayable",
      "type": "function"
    },
    {
      "constant": true,
      "inputs": [],
      "name": "bidSent",
      "outputs": [
        {
          "internalType": "bool",
          "name": "",
          "type": "bool"
        }
      ],
      "payable": false,
      "stateMutability": "view",
      "type": "function"
    },
    {
      "constant": false,
      "inputs": [],
      "name": "timeLeftBidding",
      "outputs": [
        {
          "internalType": "uint256",
          "name": "",
          "type": "uint256"
        }
      ],
      "payable": false,
      "stateMutability": "nonpayable",
      "type": "function"
    },
    {
      "constant": false,
      "inputs": [],
      "name": "timeLeftRevealing",
      "outputs": [
        {
          "internalType": "uint256",
          "name": "",
          "type": "uint256"
        }
      ],
      "payable": false,
      "stateMutability": "nonpayable",
      "type": "function"
    },
    {
      "constant": false,
      "inputs": [
        {
          "internalType": "address",
          "name": "_t",
          "type": "address"
        }
      ],
      "name": "setAddress",
      "outputs": [],
      "payable": false,
      "stateMutability": "nonpayable",
      "type": "function"
    },
    {
      "constant": false,
      "inputs": [
        {
          "internalType": "uint256",
          "name": "amount",
          "type": "uint256"
        },
        {
          "internalType": "uint256",
          "name": "nonce",
          "type": "uint256"
        }
      ],
      "name": "reveal",
      "outputs": [],
      "payable": false,
      "stateMutability": "nonpayable",
      "type": "function"
    },
    {
      "constant": false,
      "inputs": [],
      "name": "sendToVickrey",
      "outputs": [],
      "payable": false,
      "stateMutability": "nonpayable",
      "type": "function"
    },
    {
      "constant": false,
      "inputs": [],
      "name": "revealToVickrey",
      "outputs": [],
      "payable": false,
      "stateMutability": "nonpayable",
      "type": "function"
    }
  ],
  "bytecode": "0x608060405234801561001057600080fd5b50336000806101000a81548173ffffffffffffffffffffffffffffffffffffffff021916908373ffffffffffffffffffffffffffffffffffffffff160217905550600a6009819055506000600481905550610c5e806100706000396000f3fe608060405234801561001057600080fd5b50600436106100885760003560e01c80639348cef71161005b5780639348cef7146100e1578063957bb1e014610119578063e30081a014610147578063f64edbd11461018b57610088565b80631b15adcb1461008d578063222911a1146100975780634aa578b5146100a1578063838e33a9146100bf575b600080fd5b6100956101a9565b005b61009f610304565b005b6100a9610485565b6040518082815260200191505060405180910390f35b6100c7610523565b604051808215151515815260200191505060405180910390f35b610117600480360360408110156100f757600080fd5b810190808035906020019092919080359060200190929190505050610536565b005b6101456004803603602081101561012f57600080fd5b8101908080359060200190929190505050610597565b005b6101896004803603602081101561015d57600080fd5b81019080803573ffffffffffffffffffffffffffffffffffffffff169060200190929190505050610655565b005b610193610800565b6040518082815260200191505060405180910390f35b6000809054906101000a900473ffffffffffffffffffffffffffffffffffffffff1673ffffffffffffffffffffffffffffffffffffffff163373ffffffffffffffffffffffffffffffffffffffff161461024e576040517f08c379a0000000000000000000000000000000000000000000000000000000008152600401808060200182810382526022815260200180610be76022913960400191505060405180910390fd5b600860009054906101000a900473ffffffffffffffffffffffffffffffffffffffff1673ffffffffffffffffffffffffffffffffffffffff16639348cef76004546009546040518363ffffffff1660e01b81526004018083815260200182815260200192505050600060405180830381600087803b1580156102cf57600080fd5b505af11580156102e3573d6000803e3d6000fd5b505050506001600a60016101000a81548160ff021916908315150217905550565b6000809054906101000a900473ffffffffffffffffffffffffffffffffffffffff1673ffffffffffffffffffffffffffffffffffffffff163373ffffffffffffffffffffffffffffffffffffffff16146103a9576040517f08c379a0000000000000000000000000000000000000000000000000000000008152600401808060200182810382526022815260200180610be76022913960400191505060405180910390fd5b600860009054906101000a900473ffffffffffffffffffffffffffffffffffffffff1673ffffffffffffffffffffffffffffffffffffffff1663957bb1e06004546009546040516020018083815260200182815260200192505050604051602081830303815290604052805190602001206040518263ffffffff1660e01b815260040180828152602001915050600060405180830381600087803b15801561045057600080fd5b505af1158015610464573d6000803e3d6000fd5b505050506001600a60006101000a81548160ff021916908315150217905550565b600060015442106104fe576040517f08c379a00000000000000000000000000000000000000000000000000000000081526004018080602001828103825260168152602001807f42696464696e672054696d652068617320456e6465640000000000000000000081525060200191505060405180910390fd5b6001600560006101000a81548160ff0219169083151502179055504260015403905090565b600a60009054906101000a900460ff1681565b6105408282610916565b600454821115610593578160048190555033600360006101000a81548173ffffffffffffffffffffffffffffffffffffffff021916908373ffffffffffffffffffffffffffffffffffffffff1602179055505b5050565b600154421061060e576040517f08c379a00000000000000000000000000000000000000000000000000000000081526004018080602001828103825260168152602001807f42696464696e672054696d652068617320456e6465640000000000000000000081525060200191505060405180910390fd5b80600760003373ffffffffffffffffffffffffffffffffffffffff1673ffffffffffffffffffffffffffffffffffffffff1681526020019081526020016000208190555050565b6000809054906101000a900473ffffffffffffffffffffffffffffffffffffffff1673ffffffffffffffffffffffffffffffffffffffff163373ffffffffffffffffffffffffffffffffffffffff16146106fa576040517f08c379a0000000000000000000000000000000000000000000000000000000008152600401808060200182810382526022815260200180610be76022913960400191505060405180910390fd5b80600860006101000a81548173ffffffffffffffffffffffffffffffffffffffff021916908373ffffffffffffffffffffffffffffffffffffffff1602179055506000600860009054906101000a900473ffffffffffffffffffffffffffffffffffffffff1673ffffffffffffffffffffffffffffffffffffffff16634aa578b56040518163ffffffff1660e01b8152600401602060405180830381600087803b1580156107a757600080fd5b505af11580156107bb573d6000803e3d6000fd5b505050506040513d60208110156107d157600080fd5b810190808051906020019092919050505090506004814201036001819055506002600154016002819055505050565b600060015442101561087a576040517f08c379a000000000000000000000000000000000000000000000000000000000815260040180806020018281038252601c8152602001807f52657665616c696e672074696d6520686173206e6f7420626567756e0000000081525060200191505060405180910390fd5b60025442106108f1576040517f08c379a00000000000000000000000000000000000000000000000000000000081526004018080602001828103825260188152602001807f52657665616c696e672074696d652068617320456e646564000000000000000081525060200191505060405180910390fd5b6001600560006101000a81548160ff0219169083151502179055504260025403905090565b60015442101561098e576040517f08c379a000000000000000000000000000000000000000000000000000000000815260040180806020018281038252601c8152602001807f52657665616c696e672074696d6520686173206e6f7420626567756e0000000081525060200191505060405180910390fd5b6002544210610a05576040517f08c379a00000000000000000000000000000000000000000000000000000000081526004018080602001828103825260188152602001807f52657665616c696e672074696d652068617320456e646564000000000000000081525060200191505060405180910390fd5b600760003373ffffffffffffffffffffffffffffffffffffffff1673ffffffffffffffffffffffffffffffffffffffff16815260200190815260200160002054828260405160200180838152602001828152602001925050506040516020818303038152906040528051906020012014610aca576040517f08c379a0000000000000000000000000000000000000000000000000000000008152600401808060200182810382526021815260200180610c096021913960400191505060405180910390fd5b600660003373ffffffffffffffffffffffffffffffffffffffff1673ffffffffffffffffffffffffffffffffffffffff16815260200190815260200160002060009054906101000a900460ff1615610b8a576040517f08c379a00000000000000000000000000000000000000000000000000000000081526004018080602001828103825260148152602001807f42696420416c72656164792052657665616c656400000000000000000000000081525060200191505060405180910390fd5b6001600660003373ffffffffffffffffffffffffffffffffffffffff1673ffffffffffffffffffffffffffffffffffffffff16815260200190815260200160002060006101000a81548160ff021916908315150217905550505056fe4f6e6c79206f776e65722063616e2063616c6c20746869732066756e6374696f6e2e52657665616c656420426964206f72204e6f6e636520646f6e2774206d61746368a265627a7a7231582029172ffaa5febaa18f5512069f8d8b0c982da7cd5b3c07848a2e9a8c3453e22764736f6c63430005100032",
  "source": "// SPDX-License-Identifier: MIT\npragma solidity >=0.4.22 <0.8.0;\n\nimport \"./BaseAuction.sol\";\nimport \"./VickreyAuction.sol\";\n\n/*\n* A sealed bid auction conducted by the contract BiddingRing.\n* Since it is implemented in a smart contract it has some differences\n* from the traditional method. It also has a reveal time wherein\n* every bidder would have to reveal their bids to ackblock.timestampledge their claim.\n*/\n\ncontract BiddingRing is BaseAuction{\n\n    // State Variables\n    VickreyAuction vk;\n    uint private myNonce;\n    bool public bidSent;\n    bool bidReveal;\n\n    // A constructor taking in the bidding time and revealing time as parameters\n    constructor() public {\n        owner = msg.sender;\n        myNonce = 10;\n        highBid = 0;\n    }\n\n    // function to set address of main auction\n    function setAddress(address _t) public onlyOwner {\n        vk = VickreyAuction(_t);\n        uint tm = vk.timeLeftBidding();\n        endOfBidding = block.timestamp + tm - 4;\n        endOfRevealing = endOfBidding + 2;\n    }\n\n    // Overridden the reveal function of BaseAuction Contract\n    function reveal(uint amount, uint nonce) public {\n        BaseAuction.reveal(amount, nonce);\n        if (amount > highBid) {\n            highBid = amount;\n            highBidder = msg.sender;\n        }\n    }\n\n    // Function to send bid from bidding ring to the Vickrey Auction\n    function sendToVickrey() public onlyOwner {\n        vk.bid(keccak256(abi.encodePacked(highBid, myNonce)));\n        bidSent = true;\n    }\n\n    // Function to reveal bid to vickery\n    function revealToVickrey() public onlyOwner {\n        vk.reveal(highBid, myNonce);\n        bidReveal = true;\n    }\n}",
  "sourcePath": "/home/mayank/Study/BC/vickrey-auction-blockchain/contracts/BiddingRing.sol",
  "compiler": {
    "name": "solc",
    "version": "0.5.16+commit.9c3226ce.Emscripten.clang"
  },
  "schemaVersion": "3.2.4",
  "updatedAt": "2020-09-09T16:07:09.824Z",
  "networkType": "ethereum",
  "devdoc": {
    "methods": {}
  },
  "userdoc": {
    "methods": {}
  }
}