{
  "contractName": "VickreyAuction",
  "abi": [
    {
      "inputs": [
        {
          "internalType": "uint256",
          "name": "biddingPeriod",
          "type": "uint256"
        },
        {
          "internalType": "uint256",
          "name": "revealingPeriod",
          "type": "uint256"
        }
      ],
      "payable": false,
      "stateMutability": "nonpayable",
      "type": "constructor"
    },
    {
      "constant": true,
      "inputs": [],
      "name": "endOfBidding",
      "outputs": [
        {
          "internalType": "uint256",
          "name": "",
          "type": "uint256"
        }
      ],
      "payable": false,
      "stateMutability": "view",
      "type": "function"
    },
    {
      "constant": true,
      "inputs": [],
      "name": "endOfRevealing",
      "outputs": [
        {
          "internalType": "uint256",
          "name": "",
          "type": "uint256"
        }
      ],
      "payable": false,
      "stateMutability": "view",
      "type": "function"
    },
    {
      "constant": true,
      "inputs": [
        {
          "internalType": "address",
          "name": "",
          "type": "address"
        }
      ],
      "name": "hashedBidOf",
      "outputs": [
        {
          "internalType": "bytes32",
          "name": "",
          "type": "bytes32"
        }
      ],
      "payable": false,
      "stateMutability": "view",
      "type": "function"
    },
    {
      "constant": true,
      "inputs": [],
      "name": "highBid",
      "outputs": [
        {
          "internalType": "uint256",
          "name": "",
          "type": "uint256"
        }
      ],
      "payable": false,
      "stateMutability": "view",
      "type": "function"
    },
    {
      "constant": true,
      "inputs": [],
      "name": "highBidder",
      "outputs": [
        {
          "internalType": "address",
          "name": "",
          "type": "address"
        }
      ],
      "payable": false,
      "stateMutability": "view",
      "type": "function"
    },
    {
      "constant": true,
      "inputs": [
        {
          "internalType": "address",
          "name": "",
          "type": "address"
        }
      ],
      "name": "revealed",
      "outputs": [
        {
          "internalType": "bool",
          "name": "",
          "type": "bool"
        }
      ],
      "payable": false,
      "stateMutability": "view",
      "type": "function"
    },
    {
      "constant": true,
      "inputs": [],
      "name": "secondBid",
      "outputs": [
        {
          "internalType": "uint256",
          "name": "",
          "type": "uint256"
        }
      ],
      "payable": false,
      "stateMutability": "view",
      "type": "function"
    },
    {
      "constant": false,
      "inputs": [
        {
          "internalType": "uint256",
          "name": "amount",
          "type": "uint256"
        },
        {
          "internalType": "uint256",
          "name": "nonce",
          "type": "uint256"
        }
      ],
      "name": "bid",
      "outputs": [],
      "payable": false,
      "stateMutability": "nonpayable",
      "type": "function"
    },
    {
      "constant": false,
      "inputs": [
        {
          "internalType": "uint256",
          "name": "amount",
          "type": "uint256"
        },
        {
          "internalType": "uint256",
          "name": "nonce",
          "type": "uint256"
        }
      ],
      "name": "reveal",
      "outputs": [],
      "payable": false,
      "stateMutability": "nonpayable",
      "type": "function"
    },
    {
      "constant": true,
      "inputs": [],
      "name": "getWinner",
      "outputs": [
        {
          "internalType": "address",
          "name": "",
          "type": "address"
        },
        {
          "internalType": "uint256",
          "name": "",
          "type": "uint256"
        }
      ],
      "payable": false,
      "stateMutability": "view",
      "type": "function"
    }
  ],
  "bytecode": "0x608060405234801561001057600080fd5b506040516109923803806109928339818101604052604081101561003357600080fd5b8101908080519060200190929190805190602001909291905050508142016001819055508060015401600281905550336000806101000a81548173ffffffffffffffffffffffffffffffffffffffff021916908373ffffffffffffffffffffffffffffffffffffffff1602179055506001600660008060009054906101000a900473ffffffffffffffffffffffffffffffffffffffff1673ffffffffffffffffffffffffffffffffffffffff1673ffffffffffffffffffffffffffffffffffffffff16815260200190815260200160002060006101000a81548160ff02191690831515021790555050506108668061012c6000396000f3fe608060405234801561001057600080fd5b506004361061009e5760003560e01c8063598647f811610066578063598647f8146101dd5780638e7ea5b2146102155780639348cef714610266578063a5cf651f1461029e578063b6cc986f146102bc5761009e565b80630e28fca1146100a3578063142d64ce146100c157806327c0583f146101195780632916cb02146101755780633ce123dc14610193575b600080fd5b6100ab6102da565b6040518082815260200191505060405180910390f35b610103600480360360208110156100d757600080fd5b81019080803573ffffffffffffffffffffffffffffffffffffffff1690602001909291905050506102e0565b6040518082815260200191505060405180910390f35b61015b6004803603602081101561012f57600080fd5b81019080803573ffffffffffffffffffffffffffffffffffffffff1690602001909291905050506102f8565b604051808215151515815260200191505060405180910390f35b61017d610318565b6040518082815260200191505060405180910390f35b61019b61031e565b604051808273ffffffffffffffffffffffffffffffffffffffff1673ffffffffffffffffffffffffffffffffffffffff16815260200191505060405180910390f35b610213600480360360408110156101f357600080fd5b810190808035906020019092919080359060200190929190505050610344565b005b61021d6104fa565b604051808373ffffffffffffffffffffffffffffffffffffffff1673ffffffffffffffffffffffffffffffffffffffff1681526020018281526020019250505060405180910390f35b61029c6004803603604081101561027c57600080fd5b81019080803590602001909291908035906020019092919050505061052b565b005b6102a6610804565b6040518082815260200191505060405180910390f35b6102c461080a565b6040518082815260200191505060405180910390f35b60025481565b60076020528060005260406000206000915090505481565b60066020528060005260406000206000915054906101000a900460ff1681565b60015481565b600360009054906101000a900473ffffffffffffffffffffffffffffffffffffffff1681565b60015442106103bb576040517f08c379a00000000000000000000000000000000000000000000000000000000081526004018080602001828103825260168152602001807f42696464696e672054696d652068617320456e6465640000000000000000000081525060200191505060405180910390fd5b6000809054906101000a900473ffffffffffffffffffffffffffffffffffffffff1673ffffffffffffffffffffffffffffffffffffffff163373ffffffffffffffffffffffffffffffffffffffff16141561047e576040517f08c379a00000000000000000000000000000000000000000000000000000000081526004018080602001828103825260118152602001807f53656c6c65722063616e6e6f742062696400000000000000000000000000000081525060200191505060405180910390fd5b60008282604051602001808381526020018281526020019250505060405160208183030381529060405280519060200120905080600760003373ffffffffffffffffffffffffffffffffffffffff1673ffffffffffffffffffffffffffffffffffffffff16815260200190815260200160002081905550505050565b600080600360009054906101000a900473ffffffffffffffffffffffffffffffffffffffff16600554915091509091565b6001544210156105a3576040517f08c379a000000000000000000000000000000000000000000000000000000000815260040180806020018281038252601c8152602001807f52657665616c696e672074696d6520686173206e6f7420626567756e0000000081525060200191505060405180910390fd5b600254421061061a576040517f08c379a00000000000000000000000000000000000000000000000000000000081526004018080602001828103825260188152602001807f52657665616c696e672074696d652068617320456e646564000000000000000081525060200191505060405180910390fd5b600760003373ffffffffffffffffffffffffffffffffffffffff1673ffffffffffffffffffffffffffffffffffffffff168152602001908152602001600020548282604051602001808381526020018281526020019250505060405160208183030381529060405280519060200120146106df576040517f08c379a00000000000000000000000000000000000000000000000000000000081526004018080602001828103825260218152602001806108116021913960400191505060405180910390fd5b600660003373ffffffffffffffffffffffffffffffffffffffff1673ffffffffffffffffffffffffffffffffffffffff16815260200190815260200160002060009054906101000a900460ff161561073657600080fd5b6001600660003373ffffffffffffffffffffffffffffffffffffffff1673ffffffffffffffffffffffffffffffffffffffff16815260200190815260200160002060006101000a81548160ff02191690831515021790555060045482106107ed576004546005819055508160048190555033600360006101000a81548173ffffffffffffffffffffffffffffffffffffffff021916908373ffffffffffffffffffffffffffffffffffffffff160217905550610800565b6005548211156107ff57816005819055505b5b5050565b60055481565b6004548156fe52657665616c656420426964206f72204e6f6e636520646f6e2774206d61746368a265627a7a72315820d226d94eb6b0d942d83912fcd55bf80759871312c41d114fbd08ea3ff43e74e664736f6c63430005100032",
  "source": "pragma solidity ^0.5.16;\n\ncontract VickreyAuction{\n    address seller;\n    \n    uint public endOfBidding;\n    uint public endOfRevealing;\n    \n    address public highBidder;\n    uint public highBid;\n    uint public secondBid;\n\n    mapping(address => bool) public revealed;\n\n    constructor(\n      uint biddingPeriod,\n      uint revealingPeriod\n    ) \n    public \n    {\n      endOfBidding = now + biddingPeriod;\n      endOfRevealing = endOfBidding + revealingPeriod;\n      seller = msg.sender;\n      revealed[seller] = true;\n    }\n\n    mapping(address => bytes32) public hashedBidOf;\n\n    function bid(uint amount, uint nonce) public{\n      require(now < endOfBidding,\"Bidding Time has Ended\");\n      require(msg.sender!=seller,\"Seller cannot bid\");\n      bytes32 h = keccak256(abi.encodePacked(amount,nonce));\n      hashedBidOf[msg.sender] = h;\n    }\n\n\n    function reveal(uint amount, uint nonce) public {\n      require(now >= endOfBidding,\"Revealing time has not begun\");\n      require(now < endOfRevealing,\"Revealing time has Ended\");\n\n      require(keccak256(abi.encodePacked(amount, nonce)) == hashedBidOf[msg.sender], \"Revealed Bid or Nonce don't match\");\n\n      require(!revealed[msg.sender]);\n      revealed[msg.sender] = true;\n\n      if(amount >= highBid){\n          secondBid = highBid;\n          highBid = amount;\n          highBidder = msg.sender;\n      }\n      else if (amount > secondBid){\n          secondBid = amount;\n      }\n    }\n\n    function getWinner() view public returns (address, uint) {\n          return (highBidder, secondBid);\n    }\n}\n\n\n",
  "sourcePath": "/home/mayank/Study/BC/vickrey-auction-blockchain/contracts/VickreyAuction.sol",
  "compiler": {
    "name": "solc",
    "version": "0.5.16+commit.9c3226ce.Emscripten.clang"
  },
  "schemaVersion": "3.2.4",
  "updatedAt": "2020-09-08T15:12:39.984Z",
  "networkType": "ethereum",
  "devdoc": {
    "methods": {}
  },
  "userdoc": {
    "methods": {}
  }
}