{
  "contractName": "VickreyAuction",
  "abi": [
    {
      "inputs": [
        {
          "internalType": "uint256",
          "name": "_biddingPeriod",
          "type": "uint256"
        },
        {
          "internalType": "uint256",
          "name": "_revealingPeriod",
          "type": "uint256"
        }
      ],
      "payable": false,
      "stateMutability": "nonpayable",
      "type": "constructor"
    },
    {
      "constant": false,
      "inputs": [],
      "name": "timeLeftBidding",
      "outputs": [
        {
          "internalType": "uint256",
          "name": "",
          "type": "uint256"
        }
      ],
      "payable": false,
      "stateMutability": "nonpayable",
      "type": "function"
    },
    {
      "constant": false,
      "inputs": [],
      "name": "timeLeftRevealing",
      "outputs": [
        {
          "internalType": "uint256",
          "name": "",
          "type": "uint256"
        }
      ],
      "payable": false,
      "stateMutability": "nonpayable",
      "type": "function"
    },
    {
      "constant": false,
      "inputs": [
        {
          "internalType": "bytes32",
          "name": "h",
          "type": "bytes32"
        }
      ],
      "name": "bid",
      "outputs": [],
      "payable": false,
      "stateMutability": "nonpayable",
      "type": "function"
    },
    {
      "constant": false,
      "inputs": [
        {
          "internalType": "uint256",
          "name": "amount",
          "type": "uint256"
        },
        {
          "internalType": "uint256",
          "name": "nonce",
          "type": "uint256"
        }
      ],
      "name": "reveal",
      "outputs": [],
      "payable": false,
      "stateMutability": "nonpayable",
      "type": "function"
    },
    {
      "constant": true,
      "inputs": [],
      "name": "getWinner",
      "outputs": [
        {
          "internalType": "address",
          "name": "",
          "type": "address"
        },
        {
          "internalType": "uint256",
          "name": "",
          "type": "uint256"
        }
      ],
      "payable": false,
      "stateMutability": "view",
      "type": "function"
    },
    {
      "constant": false,
      "inputs": [],
      "name": "sendBidValue",
      "outputs": [],
      "payable": true,
      "stateMutability": "payable",
      "type": "function"
    }
  ],
  "bytecode": "0x608060405234801561001057600080fd5b50604051610a66380380610a668339818101604052604081101561003357600080fd5b8101908080519060200190929190805190602001909291905050508142016001819055508060015401600281905550336000806101000a81548173ffffffffffffffffffffffffffffffffffffffff021916908373ffffffffffffffffffffffffffffffffffffffff1602179055506001600660008060009054906101000a900473ffffffffffffffffffffffffffffffffffffffff1673ffffffffffffffffffffffffffffffffffffffff1673ffffffffffffffffffffffffffffffffffffffff16815260200190815260200160002060006101000a81548160ff02191690831515021790555060006004819055506000600881905550505061092a8061013c6000396000f3fe6080604052600436106100555760003560e01c80634aa578b51461005a5780638e7ea5b2146100855780639348cef7146100e3578063957bb1e014610128578063f5b22f7914610163578063f64edbd11461016d575b600080fd5b34801561006657600080fd5b5061006f610198565b6040518082815260200191505060405180910390f35b34801561009157600080fd5b5061009a610236565b604051808373ffffffffffffffffffffffffffffffffffffffff1673ffffffffffffffffffffffffffffffffffffffff1681526020018281526020019250505060405180910390f35b3480156100ef57600080fd5b506101266004803603604081101561010657600080fd5b810190808035906020019092919080359060200190929190505050610267565b005b34801561013457600080fd5b506101616004803603602081101561014b57600080fd5b81019080803590602001909291905050506102e7565b005b61016b6103b6565b005b34801561017957600080fd5b50610182610430565b6040518082815260200191505060405180910390f35b60006001544210610211576040517f08c379a00000000000000000000000000000000000000000000000000000000081526004018080602001828103825260168152602001807f42696464696e672054696d652068617320456e6465640000000000000000000081525060200191505060405180910390fd5b6001600560006101000a81548160ff0219169083151502179055504260015403905090565b600080600360009054906101000a900473ffffffffffffffffffffffffffffffffffffffff16600854915091509091565b6102718282610546565b60045482106102d0576004546008819055508160048190555033600360006101000a81548173ffffffffffffffffffffffffffffffffffffffff021916908373ffffffffffffffffffffffffffffffffffffffff1602179055506102e3565b6008548211156102e257816008819055505b5b5050565b6000809054906101000a900473ffffffffffffffffffffffffffffffffffffffff1673ffffffffffffffffffffffffffffffffffffffff163373ffffffffffffffffffffffffffffffffffffffff1614156103aa576040517f08c379a00000000000000000000000000000000000000000000000000000000081526004018080602001828103825260118152602001807f53656c6c65722063616e6e6f742062696400000000000000000000000000000081525060200191505060405180910390fd5b6103b381610816565b50565b346008600082825403925050819055506000809054906101000a900473ffffffffffffffffffffffffffffffffffffffff1673ffffffffffffffffffffffffffffffffffffffff166108fc349081150290604051600060405180830381858888f1935050505015801561042d573d6000803e3d6000fd5b50565b60006001544210156104aa576040517f08c379a000000000000000000000000000000000000000000000000000000000815260040180806020018281038252601c8152602001807f52657665616c696e672074696d6520686173206e6f7420626567756e0000000081525060200191505060405180910390fd5b6002544210610521576040517f08c379a00000000000000000000000000000000000000000000000000000000081526004018080602001828103825260188152602001807f52657665616c696e672074696d652068617320456e646564000000000000000081525060200191505060405180910390fd5b6001600560006101000a81548160ff0219169083151502179055504260025403905090565b6001544210156105be576040517f08c379a000000000000000000000000000000000000000000000000000000000815260040180806020018281038252601c8152602001807f52657665616c696e672074696d6520686173206e6f7420626567756e0000000081525060200191505060405180910390fd5b6002544210610635576040517f08c379a00000000000000000000000000000000000000000000000000000000081526004018080602001828103825260188152602001807f52657665616c696e672074696d652068617320456e646564000000000000000081525060200191505060405180910390fd5b600760003373ffffffffffffffffffffffffffffffffffffffff1673ffffffffffffffffffffffffffffffffffffffff168152602001908152602001600020548282604051602001808381526020018281526020019250505060405160208183030381529060405280519060200120146106fa576040517f08c379a00000000000000000000000000000000000000000000000000000000081526004018080602001828103825260218152602001806108d56021913960400191505060405180910390fd5b600660003373ffffffffffffffffffffffffffffffffffffffff1673ffffffffffffffffffffffffffffffffffffffff16815260200190815260200160002060009054906101000a900460ff16156107ba576040517f08c379a00000000000000000000000000000000000000000000000000000000081526004018080602001828103825260148152602001807f42696420416c72656164792052657665616c656400000000000000000000000081525060200191505060405180910390fd5b6001600660003373ffffffffffffffffffffffffffffffffffffffff1673ffffffffffffffffffffffffffffffffffffffff16815260200190815260200160002060006101000a81548160ff0219169083151502179055505050565b600154421061088d576040517f08c379a00000000000000000000000000000000000000000000000000000000081526004018080602001828103825260168152602001807f42696464696e672054696d652068617320456e6465640000000000000000000081525060200191505060405180910390fd5b80600760003373ffffffffffffffffffffffffffffffffffffffff1673ffffffffffffffffffffffffffffffffffffffff168152602001908152602001600020819055505056fe52657665616c656420426964206f72204e6f6e636520646f6e2774206d61746368a265627a7a72315820124fdaf60990cb9c3e763ffabe2b3629de82641719260935eb831fea3bd309f264736f6c63430005100032",
  "source": "// SPDX-License-Identifier: MIT\npragma solidity >=0.4.22 <0.8.0;\n\nimport \"./BaseAuction.sol\";\n\n/*\n* A Vickrey sealed bid auction had been implemented in the following contract\n* Here the highest bidder wins but has to pay only the second highest bid\n* Since it is implemented in a smart contract it has some differences\n* from the traditional method. It also has a reveal time wherein\n* every bidder would have to reveal their bids to ackblock.timestampledge their claim.\n*/\n\ncontract VickreyAuction is BaseAuction {\n\n    // State Variables\n    uint private secondBid;\n\n    // A constructor taking in the bidding time and revealing time as parameters\n    constructor (uint _biddingPeriod, uint _revealingPeriod) public {\n      endOfBidding = block.timestamp + _biddingPeriod;\n      endOfRevealing = endOfBidding + _revealingPeriod;\n      owner = msg.sender;\n      revealed[owner] = true;\n      highBid = 0;\n      secondBid = 0;\n    }\n\n    // Overriden the bid function of BaseAuction Contract\n    function bid(bytes32 h) public {\n      require(msg.sender != owner, \"Seller cannot bid\");\n      BaseAuction.bid(h);\n    }\n\n    // Overridden the reveal function of BaseAuction Contract\n    function reveal(uint amount, uint nonce) public {\n      BaseAuction.reveal(amount, nonce);\n      if(amount >= highBid){\n          secondBid = highBid;\n          highBid = amount;\n          highBidder = msg.sender;\n      }\n      else if (amount > secondBid){\n          secondBid = amount;\n      }\n    }\n\n    // Function to finally declare the winner of the Auction along with the amount they have to pay\n    // This is in assumption that the bidder will rightfully pay and hence amounts are not collected during bidding\n    function getWinner() view public returns (address, uint) {\n        return (highBidder, secondBid);\n    }\n\n    function sendBidValue() public payable {\n        secondBid -= msg.value;\n        owner.transfer(msg.value);\n    }\n}",
  "sourcePath": "/home/mayank/Study/BC/vickrey-auction-blockchain/contracts/VickreyAuction.sol",
  "compiler": {
    "name": "solc",
    "version": "0.5.16+commit.9c3226ce.Emscripten.clang"
  },
  "schemaVersion": "3.2.4",
  "updatedAt": "2020-09-09T16:07:09.528Z",
  "networkType": "ethereum",
  "devdoc": {
    "methods": {}
  },
  "userdoc": {
    "methods": {}
  }
}