{
  "contractName": "VickreyAuction",
  "abi": [
    {
      "constant": true,
      "inputs": [],
      "name": "Buyers_count",
      "outputs": [
        {
          "internalType": "uint256",
          "name": "",
          "type": "uint256"
        }
      ],
      "payable": false,
      "stateMutability": "view",
      "type": "function"
    },
    {
      "constant": true,
      "inputs": [],
      "name": "starting_price",
      "outputs": [
        {
          "internalType": "uint256",
          "name": "",
          "type": "uint256"
        }
      ],
      "payable": false,
      "stateMutability": "view",
      "type": "function"
    },
    {
      "constant": false,
      "inputs": [
        {
          "internalType": "uint256",
          "name": "_starting",
          "type": "uint256"
        }
      ],
      "name": "VickreyAuc",
      "outputs": [],
      "payable": false,
      "stateMutability": "nonpayable",
      "type": "function"
    },
    {
      "constant": true,
      "inputs": [],
      "name": "getBuyerscount",
      "outputs": [
        {
          "internalType": "uint256",
          "name": "",
          "type": "uint256"
        }
      ],
      "payable": false,
      "stateMutability": "view",
      "type": "function"
    },
    {
      "constant": false,
      "inputs": [],
      "name": "getWinner",
      "outputs": [
        {
          "internalType": "address",
          "name": "",
          "type": "address"
        },
        {
          "internalType": "uint256",
          "name": "",
          "type": "uint256"
        }
      ],
      "payable": false,
      "stateMutability": "nonpayable",
      "type": "function"
    }
  ],
  "bytecode": "0x608060405234801561001057600080fd5b506101f4806100206000396000f3fe608060405234801561001057600080fd5b50600436106100575760003560e01c806349f826931461005c5780635eaf7ae81461007a5780638e7ea5b214610098578063b312297b146100e9578063dea9d93214610107575b600080fd5b610064610135565b6040518082815260200191505060405180910390f35b61008261013b565b6040518082815260200191505060405180910390f35b6100a0610141565b604051808373ffffffffffffffffffffffffffffffffffffffff1673ffffffffffffffffffffffffffffffffffffffff1681526020018281526020019250505060405180910390f35b6100f1610148565b6040518082815260200191505060405180910390f35b6101336004803603602081101561011d57600080fd5b8101908080359060200190929190505050610152565b005b60015481565b60045481565b6000809091565b6000600154905090565b336000806101000a81548173ffffffffffffffffffffffffffffffffffffffff021916908373ffffffffffffffffffffffffffffffffffffffff1602179055506001600060146101000a81548160ff0219169083151502179055506000600181905550806004819055505056fea265627a7a72315820c7b5c77e8c867be783c1451e998b2c5f2b0615479f6f765ae7432cebf8d46a5164736f6c63430005100032",
  "source": "pragma solidity ^0.5.16;\n\ncontract VickreyAuction{\n  address seller;\n  bool is_Open;\n  uint public Buyers_count;\n  mapping (uint => address) buyers;\n  uint[] offers;\n  uint public starting_price;\n\n  modifier isopen() {\n    require(is_Open == true);\n    _;\n  }\n\n  function VickreyAuc(uint _starting) public {\n    seller = msg.sender;\n    is_Open = true;\n    Buyers_count = 0;\n    starting_price = _starting;\n  }\n\n  function getBuyerscount() public view returns (uint) {\n    return Buyers_count;\n  }\n\n\n  function bid(uint price, address buyer) isopen private{\n    buyers[Buyers_count] = buyer;\n    offers.push(price);\n    Buyers_count++;\n  }\n\n\n  function getWinner() public returns (address, uint) {\n\n  }\n\n}",
  "sourcePath": "/home/mayank/Study/BC/vickrey-auction-blockchain/contracts/VickreyAuction.sol",
  "compiler": {
    "name": "solc",
    "version": "0.5.16+commit.9c3226ce.Emscripten.clang"
  },
  "schemaVersion": "3.2.4",
  "updatedAt": "2020-09-08T09:08:03.504Z",
  "networkType": "ethereum",
  "devdoc": {
    "methods": {}
  },
  "userdoc": {
    "methods": {}
  }
}